S02300005365637572655F446961676E6F73746963735F4C43445F554152542E73726563F6
S11300000C942A000C9447000C9447000C9447006D
S11300100C9447000C9447000C9447000C94470040
S11300200C9447000C9447000C9447000C94470030
S11300300C9447000C94DB030C9447000C94B2031B
S11300400C9447000C9447000C9447000C94470010
S11300500C94470011241FBECFE5D8E0DEBFCDBF0E
S113006010E0A0E6B0E0ECE5F9E002C005900D92E6
S1130070AE3DB107D9F722E0AEEDB0E001C01D926C
S1130080AD3DB207E1F70E9449000C94AC040C9416
S11300900000CF93DF9300D000D0CDB7DEB786E069
S11300A0898398E09A8392E09B838C830E94110257
S11300B00E9457020E94480480E090E00AC0E1E0F8
S11300C0F0E0EC0FFD1FE80FF91F2081205D208375
S11300D00196843091059CF30E94A9048823E1F3DE
S11300E081E00E9431011092E00060E080E00E9413
S11300F0BB018091E900823309F065C09091EA0068
S1130100973309F060C08091EB00803329F7809128
S1130110EC00813399F482EA90E00E94DA01CE0186
S113012001960E94DA01CE0101960E94550481E0F5
S113013090E09093610080936000CECF823361F6AB
S113014025C0FC01E751FF4F608170E0E1E0F0E081
S1130150EC0FFD1FE40FF51F208130E02F5F3F4FB0
S11301606217730739F421E030E03093DF00209305
S1130170DE0008C01092DF001092DE0010926100D1
S1130180109260004F5F5F4F019604C084E090E0DE
S113019040E050E088309105A4F28091DE00909117
S11301A0DF00892B59F08091600090916100892BC8
S11301B029F087EA90E00E94DA018ECF8CEA90E081
S11301C00E94DA0189CF833391F58091EA0081336B
S11301D071F58091EB00803311F58091EC0081334F
S11301E0F1F48091ED008134D1F48091EE008134FA
S11301F0B1F48091EF00803391F48091F00080336A
S113020071F48091DE009091DF00892B41F083E04E
S11302100E946C0285EB90E00E94DA015DCF8EEBC8
S113022090E00E94DA0183E00E94840255CF87ECBB
S113023090E00E94DA0150CF41E062E080E00E9449
S1130240090385E08A95F1F7000040E062E080E070
S11302500E9409038FE39FE10197F1F700C00000BA
S11302600895CF93C82F40E063E080E00E94090323
S1130270C4FB442740F960E081E00E940903C5FB08
S1130280442740F961E081E00E940903C6FB44274A
S113029040F962E081E00E9409034C2F441F442787
S11302A0441F64E081E00E9409030E941C014C2F5A
S11302B0417060E081E00E940903C1FB442740F9DA
S11302C061E081E00E940903C2FB442740F962E037
S11302D081E00E940903C3FB442740F964E081E004
S11302E00E9409030E941C01CF910895CF93C82F47
S11302F041E063E080E00E940903C4FB442740F925
S113030060E081E00E940903C5FB442740F961E0F5
S113031081E00E940903C6FB442740F962E081E0C2
S11303200E9409034C2F441F4427441F64E081E0CA
S11303300E9409030E941C014C2F417060E081E07F
S11303400E940903C1FB442740F961E081E00E9457
S11303500903C2FB442740F962E081E00E940903DB
S1130360C3FB442740F964E081E00E9409030E9432
S11303701C01CF910895813059F028F0823069F042
S1130380833081F0089580E8860F0E94310108953A
S113039080EC860F0E943101089584E9860F0E9443
S11303A03101089584ED860F0E94310108950E9461
S11303B076010895CF93DF93EC0103C00E94D70127
S11303C0219688818111FACFDF91CF9108950F93FF
S11303D01F93CF93DF93D0E01DC00D2F10E0C80111
S11303E00896880F880F880F0E943101C0E00FC063
S11303F0F801EE0FFF1FEE0FFF1FEE0FFF1FEE5968
S1130400FF4FEC0FF11D80810E94D701CF5FC830F0
S113041078F3DF5FD83008F3DF91CF911F910F910C
S1130420089541E063E080E00E949C0241E062E0C4
S113043080E00E949C0241E060E081E00E949C0216
S113044041E061E081E00E949C0241E062E081E0E1
S11304500E949C0241E064E081E00E949C028FE5DE
S11304609AEE0197F1F700C0000083E00E94310189
S11304708FE19EE40197F1F700C0000083E00E9441
S113048031018FE891E00197F1F700C0000083E0AB
S11304900E94310182E00E94310188E20E94310110
S11304A00E94E70160E080E00E94BB01089541E002
S11304B064E080E00E949C0241E065E080E00E94EC
S11304C09C0241E066E080E00E949C0241E067E01B
S11304D081E00E949C020895813051F028F082301E
S11304E059F0833069F0089588B3806888BB089513
S11304F08BB380618BBB08958BB380628BBB0895F3
S11305008BB380648BBB0895813051F028F0823026
S113051059F0833069F0089588B38F7788BB0895C4
S11305208BB38F7E8BBB08958BB38F7D8BBB08956C
S11305308BB38F7B8BBB0895813001F130F0823017
S1130540B1F1833009F44CC00895413059F42AB311
S113055081E090E002C0880F991F6A95E2F7822B30
S11305608ABB08952AB381E090E002C0880F991FE6
S11305706A95E2F7809582238ABB0895413059F445
S113058027B381E090E002C0880F991F6A95E2F7D3
S1130590822B87BB089527B381E090E002C0880FC7
S11305A0991F6A95E2F78095822387BB08954130AD
S11305B059F424B381E090E002C0880F991F6A9532
S11305C0E2F7822B84BB089524B381E090E002C05B
S11305D0880F991F6A95E2F78095822384BB08955A
S11305E0413059F421B381E090E002C0880F991F93
S11305F06A95E2F7822B81BB089521B381E090E0F4
S113060002C0880F991F6A95E2F78095822381BB07
S11306100895813001F130F08230B1F1833009F472
S11306204CC0089541110CC02BB381E090E002C08E
S1130630880F991F6A95E2F7809582238BBB0895F2
S11306402BB381E090E002C0880F991F6A95E2F70E
S1130650822B8BBB089541110CC028B381E090E03C
S113066002C0880F991F6A95E2F78095822388BBA0
S1130670089528B381E090E002C0880F991F6A951D
S1130680E2F7822B88BB089541110CC025B381E0A9
S113069090E002C0880F991F6A95E2F78095822343
S11306A085BB089525B381E090E002C0880F991FAF
S11306B06A95E2F7822B85BB089541110CC022B3E1
S11306C081E090E002C0880F991F6A95E2F7809557
S11306D0822382BB089522B381E090E002C0880F98
S11306E0991F6A95E2F7822B82BB08952FB7206881
S11306F02FBF90BD89B98AB180618AB98AB18860F7
S11307008AB980B5866A80BD8AB180688AB98AB19F
S113071080648AB908958CB908958CB10895BC0198
S113072090E00BC0292F30E0FB01E20FF31F408162
S1130730F901E55EFE4F40839F5F923398F3E091A9
S1130740E200F0E0E55EFE4F80810E948B03089595
S11307509093E6008093E50008959093E4008093DD
S1130760E30008951F920F920FB60F9211242F9356
S11307703F934F935F936F937F938F939F93AF9325
S1130780BF93EF93FF93E091E300F091E40030977F
S113079009F00995FF91EF91BF91AF919F918F91CE
S11307A07F916F915F914F913F912F910F900FBE69
S11307B00F901F9018951F920F920FB60F9211244D
S11307C02F933F934F935F936F937F938F939F9355
S11307D0AF93BF93EF93FF93E091E500F091E600B0
S11307E0309709F00995FF91EF91BF91AF919F91D7
S11307F08F917F916F915F914F913F912F910F90C6
S11308000FBE0F901F9018959091E2009F5F9093F8
S1130810E2002091E70084E1289FF0011124E35BCA
S1130820FE4FE90FF11D8081882329F0923318F4DB
S11308300E948B0308951092E2002F5F2093E7003B
S11308400895CF93DF931F92CDB7DEB719820E942C
S11308508D03898389818D3061F08091E100E82FD7
S1130860F0E09981E751FF4F90838F5F8093E1001F
S11308700BC0E091E100F0E0E751FF4F10821092CD
S1130880E10081E08093E0000F90DF91CF91089523
S113089087E690E00E94760381E294E00E94A80338
S11308A084E094E00E94AD030895DC0160E013C08D
S11308B09091E800462F50E0FD01E40FF51F708190
S11308C084E1989F90011124235B3E4FF901E40FCA
S11308D0F51F70836F5F623358F38091E8008F5F78
S11308E08093E8009091E700891770F1892F90E0D8
S11308F024E1289FF001299FF00D1124E35BFE4FB2
S11309002081222309F12091E20034E1389FF00193
S1130910399FF00D1124E35BFE4FE20FF11D80813E
S11309200E948B035D9914C0E091E7008091E2007E
S113093094E1E99FF0011124E35BFE4FE80FF11D00
S113094080810E948B03089587ED90E00E948F03BD
S10F095008958091E0000895F894FFCF12
S113095C01000A1F1F1F1F0E0400041F1111111187
S113096C111F041F111111111F1F041F1111111F2D
S113097C1F1F041F11111F1F1F1F041F111F1F1FD7
S113098C1F1F041F1F1F1F1F1F1F00000101050530
S113099C15153637303100363730320037462032B1
S11309AC3720333500373130314141303000374650
S11309BC20333120333300696E76616C69642063B3
S11109CC6F6D6D616E64006572726F72000073
S9030000FC
